{
  "_format": "hh-sol-artifact-1",
  "contractName": "BridgeMultiSign",
  "sourceName": "contracts/community/BridgeMultiSign.sol",
  "abi": [
    {
      "inputs": [
        {
          "internalType": "address",
          "name": "_usdt",
          "type": "address"
        },
        {
          "internalType": "address",
          "name": "_usdc",
          "type": "address"
        },
        {
          "internalType": "address[]",
          "name": "_owners",
          "type": "address[]"
        }
      ],
      "stateMutability": "nonpayable",
      "type": "constructor"
    },
    {
      "anonymous": false,
      "inputs": [
        {
          "indexed": false,
          "internalType": "uint256",
          "name": "stage",
          "type": "uint256"
        },
        {
          "indexed": false,
          "internalType": "address",
          "name": "token",
          "type": "address"
        },
        {
          "indexed": false,
          "internalType": "address",
          "name": "to",
          "type": "address"
        },
        {
          "indexed": false,
          "internalType": "uint256",
          "name": "amount",
          "type": "uint256"
        }
      ],
      "name": "ExecTransaction",
      "type": "event"
    },
    {
      "inputs": [],
      "name": "DayTime",
      "outputs": [
        {
          "internalType": "uint256",
          "name": "",
          "type": "uint256"
        }
      ],
      "stateMutability": "view",
      "type": "function"
    },
    {
      "inputs": [],
      "name": "ExpiryTime",
      "outputs": [
        {
          "internalType": "uint256",
          "name": "",
          "type": "uint256"
        }
      ],
      "stateMutability": "view",
      "type": "function"
    },
    {
      "inputs": [],
      "name": "USDC",
      "outputs": [
        {
          "internalType": "address",
          "name": "",
          "type": "address"
        }
      ],
      "stateMutability": "view",
      "type": "function"
    },
    {
      "inputs": [],
      "name": "USDT",
      "outputs": [
        {
          "internalType": "address",
          "name": "",
          "type": "address"
        }
      ],
      "stateMutability": "view",
      "type": "function"
    },
    {
      "inputs": [
        {
          "internalType": "uint256",
          "name": "",
          "type": "uint256"
        },
        {
          "internalType": "uint256",
          "name": "",
          "type": "uint256"
        }
      ],
      "name": "dateInfo",
      "outputs": [
        {
          "internalType": "uint256",
          "name": "",
          "type": "uint256"
        }
      ],
      "stateMutability": "view",
      "type": "function"
    },
    {
      "inputs": [
        {
          "internalType": "uint256",
          "name": "stage",
          "type": "uint256"
        },
        {
          "internalType": "uint256",
          "name": "quota",
          "type": "uint256"
        }
      ],
      "name": "execQuota",
      "outputs": [],
      "stateMutability": "nonpayable",
      "type": "function"
    },
    {
      "inputs": [
        {
          "internalType": "uint256",
          "name": "stage",
          "type": "uint256"
        },
        {
          "internalType": "address",
          "name": "token",
          "type": "address"
        },
        {
          "internalType": "address",
          "name": "to",
          "type": "address"
        },
        {
          "internalType": "uint256",
          "name": "amount",
          "type": "uint256"
        }
      ],
      "name": "execTransaction",
      "outputs": [],
      "stateMutability": "nonpayable",
      "type": "function"
    },
    {
      "inputs": [],
      "name": "getOwnerInfo",
      "outputs": [
        {
          "internalType": "address",
          "name": "old",
          "type": "address"
        },
        {
          "internalType": "address",
          "name": "newOwn",
          "type": "address"
        },
        {
          "internalType": "address[]",
          "name": "infoOwners",
          "type": "address[]"
        },
        {
          "internalType": "uint256",
          "name": "time",
          "type": "uint256"
        }
      ],
      "stateMutability": "view",
      "type": "function"
    },
    {
      "inputs": [],
      "name": "getQuotaInfo",
      "outputs": [
        {
          "internalType": "uint256",
          "name": "quotaStage",
          "type": "uint256"
        },
        {
          "internalType": "uint256",
          "name": "limit",
          "type": "uint256"
        },
        {
          "internalType": "address[]",
          "name": "quotaOwners",
          "type": "address[]"
        },
        {
          "internalType": "uint256",
          "name": "time",
          "type": "uint256"
        }
      ],
      "stateMutability": "view",
      "type": "function"
    },
    {
      "inputs": [
        {
          "internalType": "uint256",
          "name": "stage",
          "type": "uint256"
        }
      ],
      "name": "getTransaction",
      "outputs": [
        {
          "internalType": "address",
          "name": "token",
          "type": "address"
        },
        {
          "internalType": "address",
          "name": "to",
          "type": "address"
        },
        {
          "internalType": "uint256",
          "name": "amount",
          "type": "uint256"
        },
        {
          "internalType": "address[]",
          "name": "tranOwners",
          "type": "address[]"
        },
        {
          "internalType": "uint256",
          "name": "time",
          "type": "uint256"
        }
      ],
      "stateMutability": "view",
      "type": "function"
    },
    {
      "inputs": [
        {
          "internalType": "address",
          "name": "",
          "type": "address"
        }
      ],
      "name": "isOwner",
      "outputs": [
        {
          "internalType": "bool",
          "name": "",
          "type": "bool"
        }
      ],
      "stateMutability": "view",
      "type": "function"
    },
    {
      "inputs": [],
      "name": "ownerInfo",
      "outputs": [
        {
          "internalType": "address",
          "name": "oldOwner",
          "type": "address"
        },
        {
          "internalType": "address",
          "name": "newOwner",
          "type": "address"
        },
        {
          "internalType": "uint256",
          "name": "time",
          "type": "uint256"
        }
      ],
      "stateMutability": "view",
      "type": "function"
    },
    {
      "inputs": [
        {
          "internalType": "uint256",
          "name": "",
          "type": "uint256"
        }
      ],
      "name": "owners",
      "outputs": [
        {
          "internalType": "address",
          "name": "",
          "type": "address"
        }
      ],
      "stateMutability": "view",
      "type": "function"
    },
    {
      "inputs": [],
      "name": "quotaInfo",
      "outputs": [
        {
          "internalType": "uint256",
          "name": "stage",
          "type": "uint256"
        },
        {
          "internalType": "uint256",
          "name": "quota",
          "type": "uint256"
        },
        {
          "internalType": "uint256",
          "name": "time",
          "type": "uint256"
        }
      ],
      "stateMutability": "view",
      "type": "function"
    },
    {
      "inputs": [
        {
          "internalType": "uint256",
          "name": "state",
          "type": "uint256"
        },
        {
          "internalType": "uint256",
          "name": "stage",
          "type": "uint256"
        }
      ],
      "name": "removeSignature",
      "outputs": [],
      "stateMutability": "nonpayable",
      "type": "function"
    },
    {
      "inputs": [
        {
          "internalType": "address",
          "name": "oldOwner",
          "type": "address"
        },
        {
          "internalType": "address",
          "name": "newOwner",
          "type": "address"
        }
      ],
      "name": "replaceOwner",
      "outputs": [],
      "stateMutability": "nonpayable",
      "type": "function"
    },
    {
      "inputs": [],
      "name": "secondQuota",
      "outputs": [
        {
          "internalType": "uint256",
          "name": "",
          "type": "uint256"
        }
      ],
      "stateMutability": "view",
      "type": "function"
    },
    {
      "inputs": [],
      "name": "thirdQuota",
      "outputs": [
        {
          "internalType": "uint256",
          "name": "",
          "type": "uint256"
        }
      ],
      "stateMutability": "view",
      "type": "function"
    },
    {
      "inputs": [
        {
          "internalType": "uint256",
          "name": "",
          "type": "uint256"
        }
      ],
      "name": "transactionInfo",
      "outputs": [
        {
          "internalType": "address",
          "name": "token",
          "type": "address"
        },
        {
          "internalType": "address",
          "name": "to",
          "type": "address"
        },
        {
          "internalType": "uint256",
          "name": "amount",
          "type": "uint256"
        },
        {
          "internalType": "uint256",
          "name": "time",
          "type": "uint256"
        }
      ],
      "stateMutability": "view",
      "type": "function"
    }
  ],
  "bytecode": "0x60806040526a027b46536c66c8e30000006000556a0422ca8b0a00a4250000006001553480156200002f57600080fd5b5060405162004313380380620043138339818101604052810190620000559190620003cb565b82600360006101000a81548173ffffffffffffffffffffffffffffffffffffffff021916908373ffffffffffffffffffffffffffffffffffffffff16021790555081600460006101000a81548173ffffffffffffffffffffffffffffffffffffffff021916908373ffffffffffffffffffffffffffffffffffffffff16021790555060005b815181101562000308576007600083838151811062000122577f4e487b7100000000000000000000000000000000000000000000000000000000600052603260045260246000fd5b602002602001015173ffffffffffffffffffffffffffffffffffffffff1673ffffffffffffffffffffffffffffffffffffffff16815260200190815260200160002060009054906101000a900460ff1615620001b5576040517f08c379a0000000000000000000000000000000000000000000000000000000008152600401620001ac9062000461565b60405180910390fd5b6002828281518110620001f1577f4e487b7100000000000000000000000000000000000000000000000000000000600052603260045260246000fd5b60200260200101519080600181540180825580915050600190039060005260206000200160009091909190916101000a81548173ffffffffffffffffffffffffffffffffffffffff021916908373ffffffffffffffffffffffffffffffffffffffff16021790555060016007600084848151811062000299577f4e487b7100000000000000000000000000000000000000000000000000000000600052603260045260246000fd5b602002602001015173ffffffffffffffffffffffffffffffffffffffff1673ffffffffffffffffffffffffffffffffffffffff16815260200190815260200160002060006101000a81548160ff0219169083151502179055508080620002ff9062000560565b915050620000da565b5050505062000660565b6000620003296200032384620004ac565b62000483565b905080838252602082019050828560208602820111156200034957600080fd5b60005b858110156200037d578162000362888262000387565b8452602084019350602083019250506001810190506200034c565b5050509392505050565b600081519050620003988162000646565b92915050565b600082601f830112620003b057600080fd5b8151620003c284826020860162000312565b91505092915050565b600080600060608486031215620003e157600080fd5b6000620003f18682870162000387565b9350506020620004048682870162000387565b925050604084015167ffffffffffffffff8111156200042257600080fd5b62000430868287016200039e565b9150509250925092565b600062000449600f83620004db565b915062000456826200061d565b602082019050919050565b600060208201905081810360008301526200047c816200043a565b9050919050565b60006200048f620004a2565b90506200049d82826200052a565b919050565b6000604051905090565b600067ffffffffffffffff821115620004ca57620004c9620005dd565b5b602082029050602081019050919050565b600082825260208201905092915050565b6000620004f98262000500565b9050919050565b600073ffffffffffffffffffffffffffffffffffffffff82169050919050565b6000819050919050565b62000535826200060c565b810181811067ffffffffffffffff82111715620005575762000556620005dd565b5b80604052505050565b60006200056d8262000520565b91507fffffffffffffffffffffffffffffffffffffffffffffffffffffffffffffffff821415620005a357620005a2620005ae565b5b600182019050919050565b7f4e487b7100000000000000000000000000000000000000000000000000000000600052601160045260246000fd5b7f4e487b7100000000000000000000000000000000000000000000000000000000600052604160045260246000fd5b6000601f19601f8301169050919050565b7f4475706c6963617465206f776e65720000000000000000000000000000000000600082015250565b6200065181620004ec565b81146200065d57600080fd5b50565b613ca380620006706000396000f3fe608060405234801561001057600080fd5b50600436106101215760003560e01c806389a30271116100ad578063da58b96611610071578063da58b9661461031b578063e20056e614610337578063f4fae99514610353578063facf832314610386578063fb48295d146103a757610121565b806389a3027114610282578063a910657e146102a0578063b91d4f3e146102be578063c54e44eb146102df578063cbe911d1146102fd57610121565b806337b688c0116100f457806337b688c0146101d85780634829e554146101f45780634bd834c71461022457806352f3d6a3146102445780637c826ee91461026257610121565b8063025e7c27146101265780632f54bf6e14610156578063318c15e81461018657806333ea3dc8146101a4575b600080fd5b610140600480360381019061013b91906130b4565b6103c3565b60405161014d91906133f5565b60405180910390f35b610170600480360381019061016b9190613026565b610402565b60405161017d919061355b565b60405180910390f35b61018e610422565b60405161019b9190613716565b60405180910390f35b6101be60048036038101906101b991906130b4565b610428565b6040516101cf959493929190613493565b60405180910390f35b6101f260048036038101906101ed91906130dd565b6105cd565b005b61020e60048036038101906102099190613140565b610e5a565b60405161021b9190613716565b60405180910390f35b61022c610e7f565b60405161023b9392919061345c565b60405180910390f35b61024c610ed7565b6040516102599190613716565b60405180910390f35b61026a610ede565b604051610279939291906137c2565b60405180910390f35b61028a610ef6565b60405161029791906133f5565b60405180910390f35b6102a8610f1c565b6040516102b59190613716565b60405180910390f35b6102c6610f22565b6040516102d69493929190613776565b60405180910390f35b6102e7610fd3565b6040516102f491906133f5565b60405180910390f35b610305610ff9565b6040516103129190613716565b60405180910390f35b61033560048036038101906103309190613140565b610fff565b005b610351600480360381019061034c919061304f565b611d1b565b005b61036d600480360381019061036891906130b4565b6123d1565b60405161037d94939291906134ed565b60405180910390f35b61038e612441565b60405161039e9493929190613410565b60405180910390f35b6103c160048036038101906103bc9190613140565b612532565b005b600281815481106103d357600080fd5b906000526020600020016000915054906101000a900473ffffffffffffffffffffffffffffffffffffffff1681565b60076020528060005260406000206000915054906101000a900460ff1681565b60005481565b60008060006060600080600560008881526020019081526020016000206040518060a00160405290816000820160009054906101000a900473ffffffffffffffffffffffffffffffffffffffff1673ffffffffffffffffffffffffffffffffffffffff1673ffffffffffffffffffffffffffffffffffffffff1681526020016001820160009054906101000a900473ffffffffffffffffffffffffffffffffffffffff1673ffffffffffffffffffffffffffffffffffffffff1673ffffffffffffffffffffffffffffffffffffffff168152602001600282015481526020016003820180548060200260200160405190810160405280929190818152602001828054801561058b57602002820191906000526020600020905b8160009054906101000a900473ffffffffffffffffffffffffffffffffffffffff1673ffffffffffffffffffffffffffffffffffffffff1681526020019060010190808311610541575b50505050508152602001600482015481525050905080600001519550806020015194508060400151935080606001519250806080015191505091939590929450565b6105d633612940565b610615576040517f08c379a000000000000000000000000000000000000000000000000000000000815260040161060c906135b6565b60405180910390fd5b6000600281111561064f577f4e487b7100000000000000000000000000000000000000000000000000000000600052602160045260246000fd5b84101580156106965750600280811115610692577f4e487b7100000000000000000000000000000000000000000000000000000000600052602160045260246000fd5b8411155b6106d5576040517f08c379a00000000000000000000000000000000000000000000000000000000081526004016106cc906135d6565b60405180910390fd5b600360009054906101000a900473ffffffffffffffffffffffffffffffffffffffff1673ffffffffffffffffffffffffffffffffffffffff168373ffffffffffffffffffffffffffffffffffffffff16148061077e5750600460009054906101000a900473ffffffffffffffffffffffffffffffffffffffff1673ffffffffffffffffffffffffffffffffffffffff168373ffffffffffffffffffffffffffffffffffffffff16145b6107bd576040517f08c379a00000000000000000000000000000000000000000000000000000000081526004016107b490613596565b60405180910390fd5b6107c682612940565b610805576040517f08c379a00000000000000000000000000000000000000000000000000000000081526004016107fc90613636565b60405180910390fd5b61084860006002811115610842577f4e487b7100000000000000000000000000000000000000000000000000000000600052602160045260246000fd5b85612996565b60006005600086815260200190815260200160002090506108f0816003018054806020026020016040519081016040528092919081815260200182805480156108e657602002820191906000526020600020905b8160009054906101000a900473ffffffffffffffffffffffffffffffffffffffff1673ffffffffffffffffffffffffffffffffffffffff168152602001906001019080831161089c575b5050505050612c27565b600073ffffffffffffffffffffffffffffffffffffffff168160010160009054906101000a900473ffffffffffffffffffffffffffffffffffffffff1673ffffffffffffffffffffffffffffffffffffffff161415610a4c57838160000160006101000a81548173ffffffffffffffffffffffffffffffffffffffff021916908373ffffffffffffffffffffffffffffffffffffffff160217905550828160010160006101000a81548173ffffffffffffffffffffffffffffffffffffffff021916908373ffffffffffffffffffffffffffffffffffffffff16021790555081816002018190555080600301339080600181540180825580915050600190039060005260206000200160009091909190916101000a81548173ffffffffffffffffffffffffffffffffffffffff021916908373ffffffffffffffffffffffffffffffffffffffff16021790555042816004018190555050610e54565b80600301339080600181540180825580915050600190039060005260206000200160009091909190916101000a81548173ffffffffffffffffffffffffffffffffffffffff021916908373ffffffffffffffffffffffffffffffffffffffff1602179055508373ffffffffffffffffffffffffffffffffffffffff168160000160009054906101000a900473ffffffffffffffffffffffffffffffffffffffff1673ffffffffffffffffffffffffffffffffffffffff16148015610b5f57508273ffffffffffffffffffffffffffffffffffffffff168160010160009054906101000a900473ffffffffffffffffffffffffffffffffffffffff1673ffffffffffffffffffffffffffffffffffffffff16145b8015610b6e5750818160020154145b610bad576040517f08c379a0000000000000000000000000000000000000000000000000000000008152600401610ba4906136b6565b60405180910390fd5b60006002811115610be7577f4e487b7100000000000000000000000000000000000000000000000000000000600052602160045260246000fd5b85148015610bfc575060028160030180549050145b80610c52575060016002811115610c3c577f4e487b7100000000000000000000000000000000000000000000000000000000600052602160045260246000fd5b85148015610c51575060038160030180549050145b5b80610ca75750600280811115610c91577f4e487b7100000000000000000000000000000000000000000000000000000000600052602160045260246000fd5b85148015610ca6575060048160030180549050145b5b15610e1557610cb68583612cf9565b8060000160009054906101000a900473ffffffffffffffffffffffffffffffffffffffff1673ffffffffffffffffffffffffffffffffffffffff1663a9059cbb8260010160009054906101000a900473ffffffffffffffffffffffffffffffffffffffff1683600201546040518363ffffffff1660e01b8152600401610d3d929190613532565b602060405180830381600087803b158015610d5757600080fd5b505af1158015610d6b573d6000803e3d6000fd5b505050506040513d601f19601f82011682018060405250810190610d8f919061308b565b5060056000868152602001908152602001600020600080820160006101000a81549073ffffffffffffffffffffffffffffffffffffffff02191690556001820160006101000a81549073ffffffffffffffffffffffffffffffffffffffff02191690556002820160009055600382016000610e0a9190612fa9565b600482016000905550505b7ffc9e60aba92d814dc35c2a315ccbfcbaa3aab95d952d1d7aba261eaacc654d0585858585604051610e4a9493929190613731565b60405180910390a1505b50505050565b6006602052816000526040600020602052806000526040600020600091509150505481565b600c8060000160009054906101000a900473ffffffffffffffffffffffffffffffffffffffff16908060010160009054906101000a900473ffffffffffffffffffffffffffffffffffffffff16908060030154905083565b6201518081565b60088060000154908060010154908060030154905083565b600460009054906101000a900473ffffffffffffffffffffffffffffffffffffffff1681565b61038481565b60008060606000600860000154935060086001015492506008600201805480602002602001604051908101604052809291908181526020018280548015610fbe57602002820191906000526020600020905b8160009054906101000a900473ffffffffffffffffffffffffffffffffffffffff1673ffffffffffffffffffffffffffffffffffffffff1681526020019060010190808311610f74575b50505050509150600860030154905090919293565b600360009054906101000a900473ffffffffffffffffffffffffffffffffffffffff1681565b60015481565b61100833612940565b611047576040517f08c379a000000000000000000000000000000000000000000000000000000000815260040161103e906135b6565b60405180910390fd5b60006002811115611081577f4e487b7100000000000000000000000000000000000000000000000000000000600052602160045260246000fd5b82101580156110c857506002808111156110c4577f4e487b7100000000000000000000000000000000000000000000000000000000600052602160045260246000fd5b8211155b611107576040517f08c379a00000000000000000000000000000000000000000000000000000000081526004016110fe906136f6565b60405180910390fd5b60006002811115611141577f4e487b7100000000000000000000000000000000000000000000000000000000600052602160045260246000fd5b8214156115975760006002811115611182577f4e487b7100000000000000000000000000000000000000000000000000000000600052602160045260246000fd5b81101580156111c957506002808111156111c5577f4e487b7100000000000000000000000000000000000000000000000000000000600052602160045260246000fd5b8111155b611208576040517f08c379a00000000000000000000000000000000000000000000000000000000081526004016111ff906135d6565b60405180910390fd5b6000600560008381526020019081526020016000209050600073ffffffffffffffffffffffffffffffffffffffff168160010160009054906101000a900473ffffffffffffffffffffffffffffffffffffffff1673ffffffffffffffffffffffffffffffffffffffff1614156112b3576040517f08c379a00000000000000000000000000000000000000000000000000000000081526004016112aa90613616565b60405180910390fd5b60005b81600301805490508110156114fb573373ffffffffffffffffffffffffffffffffffffffff16826003018281548110611318577f4e487b7100000000000000000000000000000000000000000000000000000000600052603260045260246000fd5b9060005260206000200160009054906101000a900473ffffffffffffffffffffffffffffffffffffffff1673ffffffffffffffffffffffffffffffffffffffff1614156114e8576001826003018054905061137391906138ca565b811461147857816003016001836003018054905061139191906138ca565b815481106113c8577f4e487b7100000000000000000000000000000000000000000000000000000000600052603260045260246000fd5b9060005260206000200160009054906101000a900473ffffffffffffffffffffffffffffffffffffffff1682600301828154811061142f577f4e487b7100000000000000000000000000000000000000000000000000000000600052603260045260246000fd5b9060005260206000200160006101000a81548173ffffffffffffffffffffffffffffffffffffffff021916908373ffffffffffffffffffffffffffffffffffffffff1602179055505b816003018054806114b2577f4e487b7100000000000000000000000000000000000000000000000000000000600052603160045260246000fd5b6001900381819060005260206000200160006101000a81549073ffffffffffffffffffffffffffffffffffffffff021916905590555b80806114f390613946565b9150506112b6565b506000816003018054905014156115915760056000838152602001908152602001600020600080820160006101000a81549073ffffffffffffffffffffffffffffffffffffffff02191690556001820160006101000a81549073ffffffffffffffffffffffffffffffffffffffff021916905560028201600090556003820160006115869190612fa9565b600482016000905550505b50611d17565b600160028111156115d1577f4e487b7100000000000000000000000000000000000000000000000000000000600052602160045260246000fd5b8214156119735760006002811115611612577f4e487b7100000000000000000000000000000000000000000000000000000000600052602160045260246000fd5b811480611657575060016002811115611654577f4e487b7100000000000000000000000000000000000000000000000000000000600052602160045260246000fd5b81145b611696576040517f08c379a000000000000000000000000000000000000000000000000000000000815260040161168d906135d6565b60405180910390fd5b600060086001015414156116df576040517f08c379a00000000000000000000000000000000000000000000000000000000081526004016116d6906136d6565b60405180910390fd5b60005b60086002018054905081101561192e573373ffffffffffffffffffffffffffffffffffffffff1660086002018281548110611746577f4e487b7100000000000000000000000000000000000000000000000000000000600052603260045260246000fd5b9060005260206000200160009054906101000a900473ffffffffffffffffffffffffffffffffffffffff1673ffffffffffffffffffffffffffffffffffffffff16141561191b5760016008600201805490506117a291906138ca565b81146118aa57600860020160016008600201805490506117c291906138ca565b815481106117f9577f4e487b7100000000000000000000000000000000000000000000000000000000600052603260045260246000fd5b9060005260206000200160009054906101000a900473ffffffffffffffffffffffffffffffffffffffff1660086002018281548110611861577f4e487b7100000000000000000000000000000000000000000000000000000000600052603260045260246000fd5b9060005260206000200160006101000a81548173ffffffffffffffffffffffffffffffffffffffff021916908373ffffffffffffffffffffffffffffffffffffffff1602179055505b60086002018054806118e5577f4e487b7100000000000000000000000000000000000000000000000000000000600052603160045260246000fd5b6001900381819060005260206000200160006101000a81549073ffffffffffffffffffffffffffffffffffffffff021916905590555b808061192690613946565b9150506116e2565b506000600860020180549050141561196e57600860008082016000905560018201600090556002820160006119639190612fa9565b600382016000905550505b611d17565b6002808111156119ac577f4e487b7100000000000000000000000000000000000000000000000000000000600052602160045260246000fd5b821415611d1657600073ffffffffffffffffffffffffffffffffffffffff16600c60000160009054906101000a900473ffffffffffffffffffffffffffffffffffffffff1673ffffffffffffffffffffffffffffffffffffffff161415611a48576040517f08c379a0000000000000000000000000000000000000000000000000000000008152600401611a3f90613576565b60405180910390fd5b60005b600c60020180549050811015611c97573373ffffffffffffffffffffffffffffffffffffffff16600c6002018281548110611aaf577f4e487b7100000000000000000000000000000000000000000000000000000000600052603260045260246000fd5b9060005260206000200160009054906101000a900473ffffffffffffffffffffffffffffffffffffffff1673ffffffffffffffffffffffffffffffffffffffff161415611c84576001600c60020180549050611b0b91906138ca565b8114611c1357600c6002016001600c60020180549050611b2b91906138ca565b81548110611b62577f4e487b7100000000000000000000000000000000000000000000000000000000600052603260045260246000fd5b9060005260206000200160009054906101000a900473ffffffffffffffffffffffffffffffffffffffff16600c6002018281548110611bca577f4e487b7100000000000000000000000000000000000000000000000000000000600052603260045260246000fd5b9060005260206000200160006101000a81548173ffffffffffffffffffffffffffffffffffffffff021916908373ffffffffffffffffffffffffffffffffffffffff1602179055505b600c600201805480611c4e577f4e487b7100000000000000000000000000000000000000000000000000000000600052603160045260246000fd5b6001900381819060005260206000200160006101000a81549073ffffffffffffffffffffffffffffffffffffffff021916905590555b8080611c8f90613946565b915050611a4b565b506000600c600201805490501415611d1557600c600080820160006101000a81549073ffffffffffffffffffffffffffffffffffffffff02191690556001820160006101000a81549073ffffffffffffffffffffffffffffffffffffffff0219169055600282016000611d0a9190612fa9565b600382016000905550505b5b5b5050565b611d2433612940565b611d63576040517f08c379a0000000000000000000000000000000000000000000000000000000008152600401611d5a906135b6565b60405180910390fd5b611d6d8282612ec3565b600073ffffffffffffffffffffffffffffffffffffffff168173ffffffffffffffffffffffffffffffffffffffff161415611ddd576040517f08c379a0000000000000000000000000000000000000000000000000000000008152600401611dd490613656565b60405180910390fd5b611e20600280811115611e19577f4e487b7100000000000000000000000000000000000000000000000000000000600052602160045260246000fd5b6000612996565b611eb2600c600201805480602002602001604051908101604052809291908181526020018280548015611ea857602002820191906000526020600020905b8160009054906101000a900473ffffffffffffffffffffffffffffffffffffffff1673ffffffffffffffffffffffffffffffffffffffff1681526020019060010190808311611e5e575b5050505050612c27565b6000600c600201805490501415611fc05781600c60000160006101000a81548173ffffffffffffffffffffffffffffffffffffffff021916908373ffffffffffffffffffffffffffffffffffffffff16021790555080600c60010160006101000a81548173ffffffffffffffffffffffffffffffffffffffff021916908373ffffffffffffffffffffffffffffffffffffffff160217905550600c600201339080600181540180825580915050600190039060005260206000200160009091909190916101000a81548173ffffffffffffffffffffffffffffffffffffffff021916908373ffffffffffffffffffffffffffffffffffffffff16021790555042600c600301819055506123cd565b600c600201339080600181540180825580915050600190039060005260206000200160009091909190916101000a81548173ffffffffffffffffffffffffffffffffffffffff021916908373ffffffffffffffffffffffffffffffffffffffff1602179055508173ffffffffffffffffffffffffffffffffffffffff16600c60000160009054906101000a900473ffffffffffffffffffffffffffffffffffffffff1673ffffffffffffffffffffffffffffffffffffffff161480156120d657508073ffffffffffffffffffffffffffffffffffffffff16600c60010160009054906101000a900473ffffffffffffffffffffffffffffffffffffffff1673ffffffffffffffffffffffffffffffffffffffff16145b612115576040517f08c379a000000000000000000000000000000000000000000000000000000000815260040161210c906136b6565b60405180910390fd5b6003600c6002018054905014156123cc5760005b60028054905081101561235f57600c60000160009054906101000a900473ffffffffffffffffffffffffffffffffffffffff1673ffffffffffffffffffffffffffffffffffffffff16600282815481106121ac577f4e487b7100000000000000000000000000000000000000000000000000000000600052603260045260246000fd5b9060005260206000200160009054906101000a900473ffffffffffffffffffffffffffffffffffffffff1673ffffffffffffffffffffffffffffffffffffffff16141561234c57816002828154811061222e577f4e487b7100000000000000000000000000000000000000000000000000000000600052603260045260246000fd5b9060005260206000200160006101000a81548173ffffffffffffffffffffffffffffffffffffffff021916908373ffffffffffffffffffffffffffffffffffffffff160217905550600060076000600c60000160009054906101000a900473ffffffffffffffffffffffffffffffffffffffff1673ffffffffffffffffffffffffffffffffffffffff1673ffffffffffffffffffffffffffffffffffffffff16815260200190815260200160002060006101000a81548160ff0219169083151502179055506001600760008473ffffffffffffffffffffffffffffffffffffffff1673ffffffffffffffffffffffffffffffffffffffff16815260200190815260200160002060006101000a81548160ff0219169083151502179055505b808061235790613946565b915050612129565b50600c600080820160006101000a81549073ffffffffffffffffffffffffffffffffffffffff02191690556001820160006101000a81549073ffffffffffffffffffffffffffffffffffffffff02191690556002820160006123c19190612fa9565b600382016000905550505b5b5050565b60056020528060005260406000206000915090508060000160009054906101000a900473ffffffffffffffffffffffffffffffffffffffff16908060010160009054906101000a900473ffffffffffffffffffffffffffffffffffffffff16908060020154908060040154905084565b60008060606000600c60000160009054906101000a900473ffffffffffffffffffffffffffffffffffffffff169350600c60010160009054906101000a900473ffffffffffffffffffffffffffffffffffffffff169250600c60020180548060200260200160405190810160405280929190818152602001828054801561251d57602002820191906000526020600020905b8160009054906101000a900473ffffffffffffffffffffffffffffffffffffffff1673ffffffffffffffffffffffffffffffffffffffff16815260200190600101908083116124d3575b50505050509150600c60030154905090919293565b61253b33612940565b61257a576040517f08c379a0000000000000000000000000000000000000000000000000000000008152600401612571906135b6565b60405180910390fd5b600060028111156125b4577f4e487b7100000000000000000000000000000000000000000000000000000000600052602160045260246000fd5b8214806125f95750600160028111156125f6577f4e487b7100000000000000000000000000000000000000000000000000000000600052602160045260246000fd5b82145b612638576040517f08c379a000000000000000000000000000000000000000000000000000000000815260040161262f906135d6565b60405180910390fd5b6000811161267b576040517f08c379a0000000000000000000000000000000000000000000000000000000008152600401612672906136d6565b60405180910390fd5b6126be600160028111156126b8577f4e487b7100000000000000000000000000000000000000000000000000000000600052602160045260246000fd5b83612996565b612750600860020180548060200260200160405190810160405280929190818152602001828054801561274657602002820191906000526020600020905b8160009054906101000a900473ffffffffffffffffffffffffffffffffffffffff1673ffffffffffffffffffffffffffffffffffffffff16815260200190600101908083116126fc575b5050505050612c27565b600060086002018054905014156127ea5781600860000181905550806008600101819055506008600201339080600181540180825580915050600190039060005260206000200160009091909190916101000a81548173ffffffffffffffffffffffffffffffffffffffff021916908373ffffffffffffffffffffffffffffffffffffffff1602179055504260086003018190555061293c565b6008600201339080600181540180825580915050600190039060005260206000200160009091909190916101000a81548173ffffffffffffffffffffffffffffffffffffffff021916908373ffffffffffffffffffffffffffffffffffffffff16021790555081600860000154148015612868575080600860010154145b6128a7576040517f08c379a000000000000000000000000000000000000000000000000000000000815260040161289e906136b6565b60405180910390fd5b6003600860020180549050141561293b57600060028111156128f2577f4e487b7100000000000000000000000000000000000000000000000000000000600052602160045260246000fd5b821415612905578060008190555061290d565b806001819055505b600860008082016000905560018201600090556002820160006129309190612fa9565b600382016000905550505b5b5050565b6000600760008373ffffffffffffffffffffffffffffffffffffffff1673ffffffffffffffffffffffffffffffffffffffff16815260200190815260200160002060009054906101000a900460ff169050919050565b600060028111156129d0577f4e487b7100000000000000000000000000000000000000000000000000000000600052602160045260246000fd5b821415612aa2576000600560008381526020019081526020016000206004015490506000811415612a015750612c23565b6103848142612a1091906138ca565b1115612aa05760056000838152602001908152602001600020600080820160006101000a81549073ffffffffffffffffffffffffffffffffffffffff02191690556001820160006101000a81549073ffffffffffffffffffffffffffffffffffffffff02191690556002820160009055600382016000612a909190612fa9565b6004820160009055505050612c23565b505b60016002811115612adc577f4e487b7100000000000000000000000000000000000000000000000000000000600052602160045260246000fd5b821415612b4657600060086003015490506000811415612afc5750612c23565b6103848142612b0b91906138ca565b1115612b445760086000808201600090556001820160009055600282016000612b349190612fa9565b6003820160009055505050612c23565b505b600280811115612b7f577f4e487b7100000000000000000000000000000000000000000000000000000000600052602160045260246000fd5b821415612c22576000600c6003015490506000811415612b9f5750612c23565b6103848142612bae91906138ca565b1115612c2057600c600080820160006101000a81549073ffffffffffffffffffffffffffffffffffffffff02191690556001820160006101000a81549073ffffffffffffffffffffffffffffffffffffffff0219169055600282016000612c159190612fa9565b600382016000905550505b505b5b5050565b60005b8151811015612cf5573373ffffffffffffffffffffffffffffffffffffffff16828281518110612c83577f4e487b7100000000000000000000000000000000000000000000000000000000600052603260045260246000fd5b602002602001015173ffffffffffffffffffffffffffffffffffffffff161415612ce2576040517f08c379a0000000000000000000000000000000000000000000000000000000008152600401612cd990613676565b60405180910390fd5b8080612ced90613946565b915050612c2a565b5050565b600280811115612d32577f4e487b7100000000000000000000000000000000000000000000000000000000600052602160045260246000fd5b821415612d3e57612ebf565b60006201518042612d4f9190613899565b905060008260066000868152602001908152602001600020600084815260200190815260200160002054612d839190613843565b905060006002811115612dbf577f4e487b7100000000000000000000000000000000000000000000000000000000600052602160045260246000fd5b841415612e0c57600054811115612e0b576040517f08c379a0000000000000000000000000000000000000000000000000000000008152600401612e0290613696565b60405180910390fd5b5b60016002811115612e46577f4e487b7100000000000000000000000000000000000000000000000000000000600052602160045260246000fd5b841415612e9357600154811115612e92576040517f08c379a0000000000000000000000000000000000000000000000000000000008152600401612e8990613696565b60405180910390fd5b5b806006600086815260200190815260200160002060008481526020019081526020016000208190555050505b5050565b600760008373ffffffffffffffffffffffffffffffffffffffff1673ffffffffffffffffffffffffffffffffffffffff16815260200190815260200160002060009054906101000a900460ff168015612f665750600760008273ffffffffffffffffffffffffffffffffffffffff1673ffffffffffffffffffffffffffffffffffffffff16815260200190815260200160002060009054906101000a900460ff16155b612fa5576040517f08c379a0000000000000000000000000000000000000000000000000000000008152600401612f9c906135f6565b60405180910390fd5b5050565b5080546000825590600052602060002090810190612fc79190612fca565b50565b5b80821115612fe3576000816000905550600101612fcb565b5090565b600081359050612ff681613c28565b92915050565b60008151905061300b81613c3f565b92915050565b60008135905061302081613c56565b92915050565b60006020828403121561303857600080fd5b600061304684828501612fe7565b91505092915050565b6000806040838503121561306257600080fd5b600061307085828601612fe7565b925050602061308185828601612fe7565b9150509250929050565b60006020828403121561309d57600080fd5b60006130ab84828501612ffc565b91505092915050565b6000602082840312156130c657600080fd5b60006130d484828501613011565b91505092915050565b600080600080608085870312156130f357600080fd5b600061310187828801613011565b945050602061311287828801612fe7565b935050604061312387828801612fe7565b925050606061313487828801613011565b91505092959194509250565b6000806040838503121561315357600080fd5b600061316185828601613011565b925050602061317285828601613011565b9150509250929050565b60006131888383613194565b60208301905092915050565b61319d816138fe565b82525050565b6131ac816138fe565b82525050565b60006131bd82613809565b6131c78185613821565b93506131d2836137f9565b8060005b838110156132035781516131ea888261317c565b97506131f583613814565b9250506001810190506131d6565b5085935050505092915050565b61321981613910565b82525050565b600061322c600e83613832565b9150613237826139ed565b602082019050919050565b600061324f600e83613832565b915061325a82613a16565b602082019050919050565b6000613272601783613832565b915061327d82613a3f565b602082019050919050565b6000613295600e83613832565b91506132a082613a68565b602082019050919050565b60006132b8602383613832565b91506132c382613a91565b604082019050919050565b60006132db601483613832565b91506132e682613ae0565b602082019050919050565b60006132fe601683613832565b915061330982613b09565b602082019050919050565b6000613321601583613832565b915061332c82613b32565b602082019050919050565b6000613344601383613832565b915061334f82613b5b565b602082019050919050565b6000613367600583613832565b915061337282613b84565b602082019050919050565b600061338a601383613832565b915061339582613bad565b602082019050919050565b60006133ad600e83613832565b91506133b882613bd6565b602082019050919050565b60006133d0600e83613832565b91506133db82613bff565b602082019050919050565b6133ef8161393c565b82525050565b600060208201905061340a60008301846131a3565b92915050565b600060808201905061342560008301876131a3565b61343260208301866131a3565b818103604083015261344481856131b2565b905061345360608301846133e6565b95945050505050565b600060608201905061347160008301866131a3565b61347e60208301856131a3565b61348b60408301846133e6565b949350505050565b600060a0820190506134a860008301886131a3565b6134b560208301876131a3565b6134c260408301866133e6565b81810360608301526134d481856131b2565b90506134e360808301846133e6565b9695505050505050565b600060808201905061350260008301876131a3565b61350f60208301866131a3565b61351c60408301856133e6565b61352960608301846133e6565b95945050505050565b600060408201905061354760008301856131a3565b61355460208301846133e6565b9392505050565b60006020820190506135706000830184613210565b92915050565b6000602082019050818103600083015261358f8161321f565b9050919050565b600060208201905081810360008301526135af81613242565b9050919050565b600060208201905081810360008301526135cf81613265565b9050919050565b600060208201905081810360008301526135ef81613288565b9050919050565b6000602082019050818103600083015261360f816132ab565b9050919050565b6000602082019050818103600083015261362f816132ce565b9050919050565b6000602082019050818103600083015261364f816132f1565b9050919050565b6000602082019050818103600083015261366f81613314565b9050919050565b6000602082019050818103600083015261368f81613337565b9050919050565b600060208201905081810360008301526136af8161335a565b9050919050565b600060208201905081810360008301526136cf8161337d565b9050919050565b600060208201905081810360008301526136ef816133a0565b9050919050565b6000602082019050818103600083015261370f816133c3565b9050919050565b600060208201905061372b60008301846133e6565b92915050565b600060808201905061374660008301876133e6565b61375360208301866131a3565b61376060408301856131a3565b61376d60608301846133e6565b95945050505050565b600060808201905061378b60008301876133e6565b61379860208301866133e6565b81810360408301526137aa81856131b2565b90506137b960608301846133e6565b95945050505050565b60006060820190506137d760008301866133e6565b6137e460208301856133e6565b6137f160408301846133e6565b949350505050565b6000819050602082019050919050565b600081519050919050565b6000602082019050919050565b600082825260208201905092915050565b600082825260208201905092915050565b600061384e8261393c565b91506138598361393c565b9250827fffffffffffffffffffffffffffffffffffffffffffffffffffffffffffffffff0382111561388e5761388d61398f565b5b828201905092915050565b60006138a48261393c565b91506138af8361393c565b9250826138bf576138be6139be565b5b828204905092915050565b60006138d58261393c565b91506138e08361393c565b9250828210156138f3576138f261398f565b5b828203905092915050565b60006139098261391c565b9050919050565b60008115159050919050565b600073ffffffffffffffffffffffffffffffffffffffff82169050919050565b6000819050919050565b60006139518261393c565b91507fffffffffffffffffffffffffffffffffffffffffffffffffffffffffffffffff8214156139845761398361398f565b5b600182019050919050565b7f4e487b7100000000000000000000000000000000000000000000000000000000600052601160045260246000fd5b7f4e487b7100000000000000000000000000000000000000000000000000000000600052601260045260246000fd5b7f41626e6f726d616c206f776e6572000000000000000000000000000000000000600082015250565b7f41626e6f726d616c20746f6b656e000000000000000000000000000000000000600082015250565b7f43616c6c6572206973206e6f7420746865206f776e6572000000000000000000600082015250565b7f41626e6f726d616c207374616765000000000000000000000000000000000000600082015250565b7f4f6c642061646472657373206f72204e657720616464726573732061626e6f7260008201527f6d616c0000000000000000000000000000000000000000000000000000000000602082015250565b7f41626e6f726d616c207472616e73616374696f6e000000000000000000000000600082015250565b7f546f2069732061626e6f726d616c206164647265737300000000000000000000600082015250565b7f4f776e6572206973207a65726f20616464726573730000000000000000000000600082015250565b7f4475706c6963617465207369676e617475726500000000000000000000000000600082015250565b7f51756f7461000000000000000000000000000000000000000000000000000000600082015250565b7f5369676e617475726520457863657074696f6e00000000000000000000000000600082015250565b7f41626e6f726d616c2071756f7461000000000000000000000000000000000000600082015250565b7f41626e6f726d616c207374617465000000000000000000000000000000000000600082015250565b613c31816138fe565b8114613c3c57600080fd5b50565b613c4881613910565b8114613c5357600080fd5b50565b613c5f8161393c565b8114613c6a57600080fd5b5056fea2646970667358221220bb26c3afb5c737621453531f1382acb467a0e075405e4fa94c2569f30e30decb64736f6c63430008010033",
  "linkReferences": {},
  "deployedLinkReferences": {}
}