{
  "_format": "hh-sol-artifact-1",
  "contractName": "TreasuryMultiSign",
  "sourceName": "contracts/community/TreasuryMultiSign.sol",
  "abi": [
    {
      "inputs": [
        {
          "internalType": "address[7]",
          "name": "_owners",
          "type": "address[7]"
        },
        {
          "internalType": "address",
          "name": "_treasury",
          "type": "address"
        }
      ],
      "stateMutability": "nonpayable",
      "type": "constructor"
    },
    {
      "anonymous": false,
      "inputs": [
        {
          "indexed": false,
          "internalType": "uint256",
          "name": "transactionId",
          "type": "uint256"
        },
        {
          "indexed": true,
          "internalType": "address",
          "name": "to",
          "type": "address"
        },
        {
          "indexed": false,
          "internalType": "uint8",
          "name": "_type",
          "type": "uint8"
        },
        {
          "indexed": false,
          "internalType": "uint256",
          "name": "amount",
          "type": "uint256"
        }
      ],
      "name": "TransactionCreated",
      "type": "event"
    },
    {
      "anonymous": false,
      "inputs": [
        {
          "indexed": false,
          "internalType": "uint256",
          "name": "transactionId",
          "type": "uint256"
        },
        {
          "indexed": true,
          "internalType": "address",
          "name": "deleter",
          "type": "address"
        }
      ],
      "name": "TransactionDeleted",
      "type": "event"
    },
    {
      "anonymous": false,
      "inputs": [
        {
          "indexed": false,
          "internalType": "uint256",
          "name": "transactionId",
          "type": "uint256"
        },
        {
          "indexed": true,
          "internalType": "address",
          "name": "signer",
          "type": "address"
        }
      ],
      "name": "TransactionSigned",
      "type": "event"
    },
    {
      "stateMutability": "nonpayable",
      "type": "fallback"
    },
    {
      "inputs": [
        {
          "internalType": "address",
          "name": "to",
          "type": "address"
        },
        {
          "internalType": "uint8",
          "name": "_type",
          "type": "uint8"
        },
        {
          "internalType": "uint256",
          "name": "amount",
          "type": "uint256"
        }
      ],
      "name": "createTransaction",
      "outputs": [],
      "stateMutability": "nonpayable",
      "type": "function"
    },
    {
      "inputs": [],
      "name": "cycle",
      "outputs": [
        {
          "internalType": "uint256",
          "name": "",
          "type": "uint256"
        }
      ],
      "stateMutability": "view",
      "type": "function"
    },
    {
      "inputs": [
        {
          "internalType": "uint256",
          "name": "transactionId",
          "type": "uint256"
        }
      ],
      "name": "deleteTransactions",
      "outputs": [],
      "stateMutability": "nonpayable",
      "type": "function"
    },
    {
      "inputs": [
        {
          "internalType": "uint256",
          "name": "index",
          "type": "uint256"
        }
      ],
      "name": "getPendingTransaction",
      "outputs": [
        {
          "components": [
            {
              "internalType": "address",
              "name": "from",
              "type": "address"
            },
            {
              "internalType": "address",
              "name": "to",
              "type": "address"
            },
            {
              "internalType": "uint8",
              "name": "_type",
              "type": "uint8"
            },
            {
              "internalType": "uint8",
              "name": "level",
              "type": "uint8"
            },
            {
              "internalType": "uint256",
              "name": "amount",
              "type": "uint256"
            },
            {
              "internalType": "address[5]",
              "name": "signAdd",
              "type": "address[5]"
            },
            {
              "internalType": "uint256",
              "name": "signCount",
              "type": "uint256"
            },
            {
              "internalType": "uint256",
              "name": "createdAt",
              "type": "uint256"
            }
          ],
          "internalType": "struct TreasuryMultiSign.Transaction",
          "name": "",
          "type": "tuple"
        }
      ],
      "stateMutability": "view",
      "type": "function"
    },
    {
      "inputs": [],
      "name": "getPendingTransactionsCount",
      "outputs": [
        {
          "internalType": "uint256[]",
          "name": "",
          "type": "uint256[]"
        }
      ],
      "stateMutability": "view",
      "type": "function"
    },
    {
      "inputs": [
        {
          "internalType": "address",
          "name": "",
          "type": "address"
        }
      ],
      "name": "isOwner",
      "outputs": [
        {
          "internalType": "bool",
          "name": "",
          "type": "bool"
        }
      ],
      "stateMutability": "view",
      "type": "function"
    },
    {
      "inputs": [],
      "name": "lastTransferTime",
      "outputs": [
        {
          "internalType": "uint256",
          "name": "",
          "type": "uint256"
        }
      ],
      "stateMutability": "view",
      "type": "function"
    },
    {
      "inputs": [],
      "name": "limit",
      "outputs": [
        {
          "internalType": "uint256",
          "name": "",
          "type": "uint256"
        }
      ],
      "stateMutability": "view",
      "type": "function"
    },
    {
      "inputs": [
        {
          "internalType": "uint256",
          "name": "",
          "type": "uint256"
        }
      ],
      "name": "owners",
      "outputs": [
        {
          "internalType": "address",
          "name": "",
          "type": "address"
        }
      ],
      "stateMutability": "view",
      "type": "function"
    },
    {
      "inputs": [
        {
          "internalType": "uint256",
          "name": "transactionId",
          "type": "uint256"
        }
      ],
      "name": "signTransaction",
      "outputs": [],
      "stateMutability": "nonpayable",
      "type": "function"
    },
    {
      "inputs": [],
      "name": "signatureExpiration",
      "outputs": [
        {
          "internalType": "uint256",
          "name": "",
          "type": "uint256"
        }
      ],
      "stateMutability": "view",
      "type": "function"
    },
    {
      "inputs": [],
      "name": "treasury",
      "outputs": [
        {
          "internalType": "contract ITreasury",
          "name": "",
          "type": "address"
        }
      ],
      "stateMutability": "view",
      "type": "function"
    }
  ],
  "bytecode": "0x60806040523480156200001157600080fd5b5060405162002cb838038062002cb8833981810160405281019062000037919062000490565b600073ffffffffffffffffffffffffffffffffffffffff168173ffffffffffffffffffffffffffffffffffffffff161415620000aa576040517f08c379a0000000000000000000000000000000000000000000000000000000008152600401620000a1906200058b565b60405180910390fd5b80600860006101000a81548173ffffffffffffffffffffffffffffffffffffffff021916908373ffffffffffffffffffffffffffffffffffffffff16021790555060005b6007811015620003da57600073ffffffffffffffffffffffffffffffffffffffff168382600781106200014a577f4e487b7100000000000000000000000000000000000000000000000000000000600052603260045260246000fd5b602002015173ffffffffffffffffffffffffffffffffffffffff161415620001a9576040517f08c379a0000000000000000000000000000000000000000000000000000000008152600401620001a09062000569565b60405180910390fd5b600080848360078110620001e6577f4e487b7100000000000000000000000000000000000000000000000000000000600052603260045260246000fd5b602002015173ffffffffffffffffffffffffffffffffffffffff1673ffffffffffffffffffffffffffffffffffffffff16815260200190815260200160002060009054906101000a900460ff161562000276576040517f08c379a00000000000000000000000000000000000000000000000000000000081526004016200026d9062000547565b60405180910390fd5b6001600080858460078110620002b5577f4e487b7100000000000000000000000000000000000000000000000000000000600052603260045260246000fd5b602002015173ffffffffffffffffffffffffffffffffffffffff1673ffffffffffffffffffffffffffffffffffffffff16815260200190815260200160002060006101000a81548160ff02191690831515021790555082816007811062000345577f4e487b7100000000000000000000000000000000000000000000000000000000600052603260045260246000fd5b60200201516001826007811062000385577f4e487b7100000000000000000000000000000000000000000000000000000000600052603260045260246000fd5b0160006101000a81548173ffffffffffffffffffffffffffffffffffffffff021916908373ffffffffffffffffffffffffffffffffffffffff1602179055508080620003d19062000684565b915050620000ee565b505050620007d6565b6000620003fa620003f484620005d6565b620005ad565b905080828560208602820111156200041157600080fd5b60005b858110156200044557816200042a88826200044f565b84526020840193506020830192505060018101905062000414565b5050509392505050565b6000815190506200046081620007bc565b92915050565b600082601f8301126200047857600080fd5b600762000487848285620003e3565b91505092915050565b6000806101008385031215620004a557600080fd5b6000620004b58582860162000466565b92505060e0620004c8858286016200044f565b9150509250929050565b6000620004e1600f83620005ff565b9150620004ee8262000741565b602082019050919050565b600062000508601183620005ff565b915062000515826200076a565b602082019050919050565b60006200052f601883620005ff565b91506200053c8262000793565b602082019050919050565b600060208201905081810360008301526200056281620004d2565b9050919050565b600060208201905081810360008301526200058481620004f9565b9050919050565b60006020820190508181036000830152620005a68162000520565b9050919050565b6000620005b9620005cc565b9050620005c782826200064e565b919050565b6000604051905090565b600067ffffffffffffffff821115620005f457620005f362000701565b5b602082029050919050565b600082825260208201905092915050565b60006200061d8262000624565b9050919050565b600073ffffffffffffffffffffffffffffffffffffffff82169050919050565b6000819050919050565b620006598262000730565b810181811067ffffffffffffffff821117156200067b576200067a62000701565b5b80604052505050565b6000620006918262000644565b91507fffffffffffffffffffffffffffffffffffffffffffffffffffffffffffffffff821415620006c757620006c6620006d2565b5b600182019050919050565b7f4e487b7100000000000000000000000000000000000000000000000000000000600052601160045260246000fd5b7f4e487b7100000000000000000000000000000000000000000000000000000000600052604160045260246000fd5b6000601f19601f8301169050919050565b7f4475706c6963617465206f776e65720000000000000000000000000000000000600082015250565b7f4f776e65722063616e6e6f742062652030000000000000000000000000000000600082015250565b7f496e76616c696420747265617375727920616464726573730000000000000000600082015250565b620007c78162000610565b8114620007d357600080fd5b50565b6124d280620007e66000396000f3fe608060405234801561001057600080fd5b50600436106100b85760003560e01c80636190c9d5116100715780636190c9d5146101dc57806361d027b3146101fa5780639221e0d214610218578063a4d66daf14610234578063cb996aa014610252578063fcf45c0f14610270576100b9565b8063025e7c27146100f457806323fbae4114610124578063247c69f0146101545780632f54bf6e146101725780634bf0e868146101a25780635d9ec210146101c0576100b9565b5b6040517f08c379a00000000000000000000000000000000000000000000000000000000081526004016100eb90611e91565b60405180910390fd5b61010e60048036038101906101099190611944565b61028c565b60405161011b9190611d35565b60405180910390f35b61013e60048036038101906101399190611944565b6102c2565b60405161014b9190611f71565b60405180910390f35b61015c61046f565b6040516101699190611f8d565b60405180910390f35b61018c600480360381019061018791906118a3565b610475565b6040516101999190611d9b565b60405180910390f35b6101aa610495565b6040516101b79190611f8d565b60405180910390f35b6101da60048036038101906101d59190611944565b61049b565b005b6101e4610be4565b6040516101f19190611f8d565b60405180910390f35b610202610beb565b60405161020f9190611db6565b60405180910390f35b610232600480360381019061022d91906118cc565b610c11565b005b61023c61121e565b6040516102499190611f8d565b60405180910390f35b61025a61122d565b6040516102679190611d79565b60405180910390f35b61028a60048036038101906102859190611944565b611285565b005b6001816007811061029c57600080fd5b016000915054906101000a900473ffffffffffffffffffffffffffffffffffffffff1681565b6102ca61178d565b600a6000838152602001908152602001600020604051806101000160405290816000820160009054906101000a900473ffffffffffffffffffffffffffffffffffffffff1673ffffffffffffffffffffffffffffffffffffffff1673ffffffffffffffffffffffffffffffffffffffff1681526020016001820160009054906101000a900473ffffffffffffffffffffffffffffffffffffffff1673ffffffffffffffffffffffffffffffffffffffff1673ffffffffffffffffffffffffffffffffffffffff1681526020016001820160149054906101000a900460ff1660ff1660ff1681526020016001820160159054906101000a900460ff1660ff1660ff168152602001600282015481526020016003820160058060200260405190810160405280929190826005801561044b576020028201915b8160009054906101000a900473ffffffffffffffffffffffffffffffffffffffff1673ffffffffffffffffffffffffffffffffffffffff1681526020019060010190808311610401575b50505050508152602001600882015481526020016009820154815250509050919050565b61070881565b60006020528060005260406000206000915054906101000a900460ff1681565b600c5481565b6000806104a661142c565b73ffffffffffffffffffffffffffffffffffffffff1673ffffffffffffffffffffffffffffffffffffffff16815260200190815260200160002060009054906101000a900460ff1661052d576040517f08c379a000000000000000000000000000000000000000000000000000000000815260040161052490611df1565b60405180910390fd5b6000600a60008381526020019081526020016000209050600073ffffffffffffffffffffffffffffffffffffffff168160000160009054906101000a900473ffffffffffffffffffffffffffffffffffffffff1673ffffffffffffffffffffffffffffffffffffffff1614156105d8576040517f08c379a00000000000000000000000000000000000000000000000000000000081526004016105cf90611f11565b60405180910390fd5b6105e061142c565b73ffffffffffffffffffffffffffffffffffffffff168160000160009054906101000a900473ffffffffffffffffffffffffffffffffffffffff1673ffffffffffffffffffffffffffffffffffffffff161415610672576040517f08c379a000000000000000000000000000000000000000000000000000000000815260040161066990611e71565b60405180910390fd5b4261070882600901546106859190612056565b10156106c6576040517f08c379a00000000000000000000000000000000000000000000000000000000081526004016106bd90611f31565b60405180910390fd5b60008160080154905060018260010160159054906101000a900460ff166106ed91906120e0565b60ff168110156107055761070083611434565b610b8a565b60008260010160149054906101000a900460ff1660ff1614156108fa5760008060006001856002015460078110610765577f4e487b7100000000000000000000000000000000000000000000000000000000600052603260045260246000fd5b0160009054906101000a900473ffffffffffffffffffffffffffffffffffffffff1673ffffffffffffffffffffffffffffffffffffffff1673ffffffffffffffffffffffffffffffffffffffff16815260200190815260200160002060006101000a81548160ff02191690831515021790555060016000808460010160009054906101000a900473ffffffffffffffffffffffffffffffffffffffff1673ffffffffffffffffffffffffffffffffffffffff1673ffffffffffffffffffffffffffffffffffffffff16815260200190815260200160002060006101000a81548160ff0219169083151502179055508160010160009054906101000a900473ffffffffffffffffffffffffffffffffffffffff1660018360020154600781106108b6577f4e487b7100000000000000000000000000000000000000000000000000000000600052603260045260246000fd5b0160006101000a81548173ffffffffffffffffffffffffffffffffffffffff021916908373ffffffffffffffffffffffffffffffffffffffff160217905550610acc565b60018260010160149054906101000a900460ff1660ff1614156109fb5742600c81905550600860009054906101000a900473ffffffffffffffffffffffffffffffffffffffff1673ffffffffffffffffffffffffffffffffffffffff1663a9059cbb8360010160009054906101000a900473ffffffffffffffffffffffffffffffffffffffff1684600201546040518363ffffffff1660e01b81526004016109a3929190611d50565b602060405180830381600087803b1580156109bd57600080fd5b505af11580156109d1573d6000803e3d6000fd5b505050506040513d601f19601f820116820180604052508101906109f5919061191b565b50610acb565b60028260010160149054906101000a900460ff1660ff161415610aca57600860009054906101000a900473ffffffffffffffffffffffffffffffffffffffff1673ffffffffffffffffffffffffffffffffffffffff1663f2fde38b8360010160009054906101000a900473ffffffffffffffffffffffffffffffffffffffff166040518263ffffffff1660e01b8152600401610a979190611d35565b600060405180830381600087803b158015610ab157600080fd5b505af1158015610ac5573d6000803e3d6000fd5b505050505b5b5b610ad5836115e3565b600a6000848152602001908152602001600020600080820160006101000a81549073ffffffffffffffffffffffffffffffffffffffff02191690556001820160006101000a81549073ffffffffffffffffffffffffffffffffffffffff02191690556001820160146101000a81549060ff02191690556001820160156101000a81549060ff02191690556002820160009055600382016000610b77919061180a565b6008820160009055600982016000905550505b610b9261142c565b73ffffffffffffffffffffffffffffffffffffffff167f737f6609fa194738ed162051f994c6e9599a830846ea9d72d6501d79871e098184604051610bd79190611f8d565b60405180910390a2505050565b6276a70081565b600860009054906101000a900473ffffffffffffffffffffffffffffffffffffffff1681565b600080610c1c61142c565b73ffffffffffffffffffffffffffffffffffffffff1673ffffffffffffffffffffffffffffffffffffffff16815260200190815260200160002060009054906101000a900460ff16610ca3576040517f08c379a0000000000000000000000000000000000000000000000000000000008152600401610c9a90611df1565b60405180910390fd5b600060096000815480929190610cb89061218d565b9190505590506000600a60008381526020019081526020016000209050600073ffffffffffffffffffffffffffffffffffffffff168573ffffffffffffffffffffffffffffffffffffffff161415610d45576040517f08c379a0000000000000000000000000000000000000000000000000000000008152600401610d3c90611e51565b60405180910390fd5b60028460ff1610610d8b576040517f08c379a0000000000000000000000000000000000000000000000000000000008152600401610d8290611ef1565b60405180910390fd5b60008460ff161415610e855760078310610dda576040517f08c379a0000000000000000000000000000000000000000000000000000000008152600401610dd190611eb1565b60405180910390fd5b6000808673ffffffffffffffffffffffffffffffffffffffff1673ffffffffffffffffffffffffffffffffffffffff16815260200190815260200160002060009054906101000a900460ff1615610e66576040517f08c379a0000000000000000000000000000000000000000000000000000000008152600401610e5d90611e31565b60405180910390fd5b60058160010160156101000a81548160ff021916908360ff1602179055505b60018460ff161415610f88576a18d0bf423c03d8de0000008310610ede576040517f08c379a0000000000000000000000000000000000000000000000000000000008152600401610ed590611ed1565b60405180910390fd5b6000808673ffffffffffffffffffffffffffffffffffffffff1673ffffffffffffffffffffffffffffffffffffffff16815260200190815260200160002060009054906101000a900460ff16610f69576040517f08c379a0000000000000000000000000000000000000000000000000000000008152600401610f6090611f51565b60405180910390fd5b60058160010160156101000a81548160ff021916908360ff1602179055505b60028460ff161415611000576a18d0bf423c03d8de0000008310610fe1576040517f08c379a0000000000000000000000000000000000000000000000000000000008152600401610fd890611ed1565b60405180910390fd5b60078160010160156101000a81548160ff021916908360ff1602179055505b6276a700600c546110119190612056565b4211611052576040517f08c379a000000000000000000000000000000000000000000000000000000000815260040161104990611dd1565b60405180910390fd5b61105a61142c565b8160000160006101000a81548173ffffffffffffffffffffffffffffffffffffffff021916908373ffffffffffffffffffffffffffffffffffffffff160217905550848160010160006101000a81548173ffffffffffffffffffffffffffffffffffffffff021916908373ffffffffffffffffffffffffffffffffffffffff160217905550838160010160146101000a81548160ff021916908360ff16021790555082816002018190555061110d61142c565b8160030160006005811061114a577f4e487b7100000000000000000000000000000000000000000000000000000000600052603260045260246000fd5b0160006101000a81548173ffffffffffffffffffffffffffffffffffffffff021916908373ffffffffffffffffffffffffffffffffffffffff16021790555060018160080181905550428160090181905550600b8290806001815401808255809150506001900390600052602060002001600090919091909150558473ffffffffffffffffffffffffffffffffffffffff167fc5617696b75e538ed738f904611fdfb78dff557717f05c9ea38595041503c5f083868660405161120f93929190611fa8565b60405180910390a25050505050565b6a18d0bf423c03d8de00000081565b6060600b80548060200260200160405190810160405280929190818152602001828054801561127b57602002820191906000526020600020905b815481526020019060010190808311611267575b5050505050905090565b60008061129061142c565b73ffffffffffffffffffffffffffffffffffffffff1673ffffffffffffffffffffffffffffffffffffffff16815260200190815260200160002060009054906101000a900460ff16611317576040517f08c379a000000000000000000000000000000000000000000000000000000000815260040161130e90611df1565b60405180910390fd5b611320816115e3565b600a6000828152602001908152602001600020600080820160006101000a81549073ffffffffffffffffffffffffffffffffffffffff02191690556001820160006101000a81549073ffffffffffffffffffffffffffffffffffffffff02191690556001820160146101000a81549060ff02191690556001820160156101000a81549060ff021916905560028201600090556003820160006113c2919061180a565b6008820160009055600982016000905550506113dc61142c565b73ffffffffffffffffffffffffffffffffffffffff167f0db4a2e81b174686d0ed44896f2d8fcfe9eb7631601e632fbe6aa79b267bc150826040516114219190611f8d565b60405180910390a250565b600033905090565b6000600a6000838152602001908152602001600020905060008160080154905060005b818110156115455782600301816005811061149b577f4e487b7100000000000000000000000000000000000000000000000000000000600052603260045260246000fd5b0160009054906101000a900473ffffffffffffffffffffffffffffffffffffffff1673ffffffffffffffffffffffffffffffffffffffff166114db61142c565b73ffffffffffffffffffffffffffffffffffffffff161415611532576040517f08c379a000000000000000000000000000000000000000000000000000000000815260040161152990611e71565b60405180910390fd5b808061153d9061218d565b915050611457565b5061154e61142c565b82600301826005811061158a577f4e487b7100000000000000000000000000000000000000000000000000000000600052603260045260246000fd5b0160006101000a81548173ffffffffffffffffffffffffffffffffffffffff021916908373ffffffffffffffffffffffffffffffffffffffff1602179055506001816115d69190612056565b8260080181905550505050565b600080600090505b600b805490508110156117485782600b8281548110611633577f4e487b7100000000000000000000000000000000000000000000000000000000600052603260045260246000fd5b9060005260206000200154141561173557600b6001600b8054905061165891906120ac565b8154811061168f577f4e487b7100000000000000000000000000000000000000000000000000000000600052603260045260246000fd5b9060005260206000200154600b82815481106116d4577f4e487b7100000000000000000000000000000000000000000000000000000000600052603260045260246000fd5b9060005260206000200181905550600b80548061171a577f4e487b7100000000000000000000000000000000000000000000000000000000600052603160045260246000fd5b60019003818190600052602060002001600090559055600191505b80806117409061218d565b9150506115eb565b5080611789576040517f08c379a000000000000000000000000000000000000000000000000000000000815260040161178090611e11565b60405180910390fd5b5050565b604051806101000160405280600073ffffffffffffffffffffffffffffffffffffffff168152602001600073ffffffffffffffffffffffffffffffffffffffff168152602001600060ff168152602001600060ff168152602001600081526020016117f661182d565b815260200160008152602001600081525090565b506000815560010160008155600101600081556001016000815560010160009055565b6040518060a00160405280600590602082028036833780820191505090505090565b60008135905061185e81612440565b92915050565b60008151905061187381612457565b92915050565b6000813590506118888161246e565b92915050565b60008135905061189d81612485565b92915050565b6000602082840312156118b557600080fd5b60006118c38482850161184f565b91505092915050565b6000806000606084860312156118e157600080fd5b60006118ef8682870161184f565b93505060206119008682870161188e565b925050604061191186828701611879565b9150509250925092565b60006020828403121561192d57600080fd5b600061193b84828501611864565b91505092915050565b60006020828403121561195657600080fd5b600061196484828501611879565b91505092915050565b6000611979838361199d565b60208301905092915050565b60006119918383611cf9565b60208301905092915050565b6119a681612114565b82525050565b6119b581612114565b82525050565b6119c481611ff9565b6119ce8184612029565b92506119d982611fdf565b8060005b83811015611a0a5781516119f1878261196d565b96506119fc8361200f565b9250506001810190506119dd565b505050505050565b6000611a1d82612004565b611a278185612034565b9350611a3283611fe9565b8060005b83811015611a63578151611a4a8882611985565b9750611a558361201c565b925050600181019050611a36565b5085935050505092915050565b611a7981612126565b82525050565b611a8881612169565b82525050565b6000611a9b601483612045565b9150611aa682612205565b602082019050919050565b6000611abe601783612045565b9150611ac98261222e565b602082019050919050565b6000611ae1601783612045565b9150611aec82612257565b602082019050919050565b6000611b04601483612045565b9150611b0f82612280565b602082019050919050565b6000611b27600e83612045565b9150611b32826122a9565b602082019050919050565b6000611b4a601483612045565b9150611b55826122d2565b602082019050919050565b6000611b6d601e83612045565b9150611b78826122fb565b602082019050919050565b6000611b90601283612045565b9150611b9b82612324565b602082019050919050565b6000611bb3601b83612045565b9150611bbe8261234d565b602082019050919050565b6000611bd6601083612045565b9150611be182612376565b602082019050919050565b6000611bf9601983612045565b9150611c048261239f565b602082019050919050565b6000611c1c601583612045565b9150611c27826123c8565b602082019050919050565b6000611c3f602283612045565b9150611c4a826123f1565b604082019050919050565b61018082016000820151611c6c600085018261199d565b506020820151611c7f602085018261199d565b506040820151611c926040850182611d17565b506060820151611ca56060850182611d17565b506080820151611cb86080850182611cf9565b5060a0820151611ccb60a08501826119bb565b5060c0820151611cdf610140850182611cf9565b5060e0820151611cf3610160850182611cf9565b50505050565b611d0281612152565b82525050565b611d1181612152565b82525050565b611d208161215c565b82525050565b611d2f8161215c565b82525050565b6000602082019050611d4a60008301846119ac565b92915050565b6000604082019050611d6560008301856119ac565b611d726020830184611d08565b9392505050565b60006020820190508181036000830152611d938184611a12565b905092915050565b6000602082019050611db06000830184611a70565b92915050565b6000602082019050611dcb6000830184611a7f565b92915050565b60006020820190508181036000830152611dea81611a8e565b9050919050565b60006020820190508181036000830152611e0a81611ab1565b9050919050565b60006020820190508181036000830152611e2a81611ad4565b9050919050565b60006020820190508181036000830152611e4a81611af7565b9050919050565b60006020820190508181036000830152611e6a81611b1a565b9050919050565b60006020820190508181036000830152611e8a81611b3d565b9050919050565b60006020820190508181036000830152611eaa81611b60565b9050919050565b60006020820190508181036000830152611eca81611b83565b9050919050565b60006020820190508181036000830152611eea81611ba6565b9050919050565b60006020820190508181036000830152611f0a81611bc9565b9050919050565b60006020820190508181036000830152611f2a81611bec565b9050919050565b60006020820190508181036000830152611f4a81611c0f565b9050919050565b60006020820190508181036000830152611f6a81611c32565b9050919050565b600061018082019050611f876000830184611c55565b92915050565b6000602082019050611fa26000830184611d08565b92915050565b6000606082019050611fbd6000830186611d08565b611fca6020830185611d26565b611fd76040830184611d08565b949350505050565b6000819050919050565b6000819050602082019050919050565b600060059050919050565b600081519050919050565b6000602082019050919050565b6000602082019050919050565b600081905092915050565b600082825260208201905092915050565b600082825260208201905092915050565b600061206182612152565b915061206c83612152565b9250827fffffffffffffffffffffffffffffffffffffffffffffffffffffffffffffffff038211156120a1576120a06121d6565b5b828201905092915050565b60006120b782612152565b91506120c283612152565b9250828210156120d5576120d46121d6565b5b828203905092915050565b60006120eb8261215c565b91506120f68361215c565b925082821015612109576121086121d6565b5b828203905092915050565b600061211f82612132565b9050919050565b60008115159050919050565b600073ffffffffffffffffffffffffffffffffffffffff82169050919050565b6000819050919050565b600060ff82169050919050565b60006121748261217b565b9050919050565b600061218682612132565b9050919050565b600061219882612152565b91507fffffffffffffffffffffffffffffffffffffffffffffffffffffffffffffffff8214156121cb576121ca6121d6565b5b600182019050919050565b7f4e487b7100000000000000000000000000000000000000000000000000000000600052601160045260246000fd5b7f5472616e73666572206c6f636b20706572696f64000000000000000000000000600082015250565b7f43616c6c6572206973206e6f7420746865206f776e6572000000000000000000600082015250565b7f7472616e73616374696f6e4964206e6f7420666f756e64000000000000000000600082015250565b7f4f776e657220616c726561647920657869737473000000000000000000000000600082015250565b7f546f2063616e6e6f742062652030000000000000000000000000000000000000600082015250565b7f546865206f776e657220686173207369676e6564000000000000000000000000600082015250565b7f416e6f6e796d6f75732066616c6c6261636b206e6f7420616c6c6f7765640000600082015250565b7f556e737570706f7274656420616d6f756e740000000000000000000000000000600082015250565b7f457863656564696e6720746865206d6178696d756d206c696d69740000000000600082015250565b7f556e737570706f72746564207479706500000000000000000000000000000000600082015250565b7f506c6561736520637265617465207472616e73616374696f6e00000000000000600082015250565b7f5369676e61747572652068617320657870697265640000000000000000000000600082015250565b7f5472616e7366657273207265737472696374656420746f206f776e6572206f6e60008201527f6c79000000000000000000000000000000000000000000000000000000000000602082015250565b61244981612114565b811461245457600080fd5b50565b61246081612126565b811461246b57600080fd5b50565b61247781612152565b811461248257600080fd5b50565b61248e8161215c565b811461249957600080fd5b5056fea26469706673582212208612d0f4e50bc5dd14012b31b2fefdb34062723c66548b74b7adc628fcf2465164736f6c63430008010033",
  "linkReferences": {},
  "deployedLinkReferences": {}
}